:100000000C94C4050C94EC050C94EC050C94EC05D4
:100010000C94EC050C94EC050C94EC050C94EC059C
:100020000C94EC050C94EC050C940D1C0C947C1CAD
:100030000C94EC050C94EC050C94EC050C94EC057C
:100040000C94EC050C94EC050C94EC050C94EC056C
:100050000C94EC050C94EC050C94EC050C94C31B6F
:100060000C94EC050C94EC050C94EC050C94EC054C
:100070000C94EC050C94EC050C94EC050C94EC053C
:100080000C94EC050C94EC050C94EC050C94EC052C
:100090000C94AE1E0C94EC050C94EC050C94EC0541
:1000A0000C94EC050C94EC050C94EC050001030792
:1000B0000F1F3F7F0080C0E0F0F8FCFE0000000052
:1000C000003E5B4F5B3E3E6B4F6B3E1C3E7C3E1CDE
:1000D000183C7E3C181C577D571C1C5E7F5E1C0024
:1000E000183C1800FFE7C3E7FF0018241800FFE7DB
:1000F000DBE7FF30483A060E2629792926407F059E
:100100000507407F05253F5A3CE73C5A7F3E1C1CB3
:1001100008081C1C3E7F14227F22145F5F005F5F73
:1001200006097F017F006689956A6060606060945F
:10013000A2FFA29408047E040810207E2010080864
:100140002A1C08081C2A08081E101010100C1E0C6F
:100150001E0C30383E3830060E3E0E060000000001
:100160000000005F00000007000700147F147F14E8
:10017000242A7F2A1223130864623649562050002D
:1001800008070300001C2241000041221C002A1C19
:100190007F1C2A08083E0808008070300008080804
:1001A0000808000060600020100804023E51494524
:1001B0003E00427F400072494949462141494D3342
:1001C0001814127F1027454545393C4A49493141A9
:1001D000211109073649494936464949291E000077
:1001E00014000000403400000008142241141414CC
:1001F0001414004122140802015909063E415D59B8
:100200004E7C1211127C7F494949363E41414122C0
:100210007F4141413E7F494949417F090909013EEA
:10022000414151737F0808087F00417F4100204011
:10023000413F017F081422417F404040407F021C23
:10024000027F7F0408107F3E4141413E7F0909093A
:10025000063E4151215E7F09192946264949493206
:1002600003017F01033F4040403F1F2040201F3FCC
:100270004038403F63140814630304780403615951
:10028000494D43007F414141020408102000414193
:10029000417F04020102044040404040000307083F
:1002A0000020545478407F2844443838444444283B
:1002B000384444287F385454541800087E090218E2
:1002C000A4A49C787F0804047800447D400020406A
:1002D000403D007F1028440000417F40007C0478AE
:1002E00004787C080404783844444438FC182424F6
:1002F0001818242418FC7C08040408485454542476
:1003000004043F44243C4040207C1C2040201C3CF2
:100310004030403C44281028444C9090907C4464E9
:10032000544C44000836410000007700000041367C
:10033000080002010204023C2623263C1EA1A16102
:10034000123A4040207A3854545559215555794134
:100350002254547842215554784020545579400C09
:100360001E527212395555555939545454593955EC
:100370005454580000457C410002457D420001452F
:100380007C407D1211127DF0282528F07C545545C3
:10039000002054547C547C0A097F4932494949322F
:1003A0003A4444443A324A4848303A4141217A3A40
:1003B00042402078009DA0A07D3D4242423D3D400C
:1003C00040403D3C24FF2424487E4943662B2FFCBB
:1003D0002F2BFF0929F620C0887E09032054547969
:1003E000410000447D413048484A32384040227A3A
:1003F000007A0A0A727D0D19317D2629292F2826B7
:100400002929292630484D402038080808080808BE
:100410000808382F10C8ACBA2F102834FA00007B17
:10042000000008142A142222142A1408550055002A
:1004300055AA55AA55AAFF55FF55FF000000FF0019
:10044000101010FF00141414FF001010FF00FF1014
:1004500010F010F0141414FC001414F700FF000046
:10046000FF00FF1414F404FC141417101F10101FC5
:10047000101F1414141F00101010F0000000001FB3
:10048000101010101F10101010F010000000FF10BE
:100490001010101010101010FF10000000FF1400BA
:1004A00000FF00FF00001F10170000FC04F41414EC
:1004B0001710171414F404F40000FF00F7141414B8
:1004C00014141414F700F7141414171410101F1038
:1004D0001F141414F4141010F010F000001F101F5B
:1004E0000000001F14000000FC140000F010F010C9
:1004F00010FF10FF141414FF141010101F00000040
:1005000000F010FFFFFFFFFFF0F0F0F0F0FFFFFF43
:100510000000000000FFFF0F0F0F0F0F384444389A
:1005200044FC4A4A4A347E02020606027E027E02E9
:1005300063554941633844443C04407E201E2006F4
:10054000027E020299A5E7A5991C2A492A1C4C7231
:1005500001724C304A4D4D303048784830BC625AB8
:10056000463D3E494949007E0101017E2A2A2A2A48
:100570002A44445F444440514A444040444A514024
:100580000000FF0103E080FF000008086B6B0836E5
:1005900012362436060F090F060000181800000056
:1005A0001010003040FF0101001F01011E00191D45
:1005B0001712003C3C3C3C0000000000DB40A4A6BD
:1005C0002EAF2000A1C8D300408DAED580A800007A
:1005D000600000000000000000000000000000E0DB
:1005E0000000000000000000000000000001E0002A
:1005F00000000000000000000000000001F000000A
:10060000000000000000000000000003F0000000F7
:100610000000000000000000000007F000000000E3
:1006200000000000000000000007F80000000000CB
:1006300000000000000000000FF800000003C000F0
:100640007E000001E0007F0FF800000003C000FE04
:10065000000001E000FFEFF800000003C000FE0012
:100660000001E000FFFFF800000003C000F0000000
:10067000000F007FFE7FC0000003C000F0000000FC
:100680000F003FFE7FF83FF1FBCFFCFEF3BC3DEFD8
:10069000E01FFE7FFF7FFBFFDFFEFEFFBC3DEFE0C4
:1006A0001FC6FFFF7FFBFFDFFEFEFFBC3DEFE00F3D
:1006B000E3C7FE787BC3DE1EF0FFBC3DEF0007FF03
:1006C00087FC787BC3DE1EF0F83C3DEF0001FFFFA6
:1006D000F0007BC3C01EF0F03C3DEF0001F37FE073
:1006E0003FFBC3CFFEF0F03C3DEF0003E33F807FD4
:1006F000FBC3DFFEF0F03C3DEF0007E73C00787BFA
:10070000C3DE1EF0F03C3DEF0007FFBE00787BC368
:10071000DE1EF0F03C3DEF0007FFFE00787BC3DEFD
:100720001EF0F03C3DEF000FFFFE007FFBFFDFFE01
:10073000F0F03FFDEFE00FFFFF007FFBFFDFFEF07B
:10074000F03FFDEFE00FF9FF003E79F9CF9EF0F0AA
:100750001F3DE7E01FF1FF00000000000000000067
:100760000000001F80FF007FFFFFFFFFFFFFFFFF74
:10077000FFE01C007F007FFFFFFFFEB46D888D1837
:10078000E000001F007FFFFFFFFE95AD7DB577E025
:1007900000000F007FFFFFFFFEA5AD9D8D19E0005B
:1007A0000006007FFFFFFFFEB5ADEDB57EE0000067
:1007B0000000000180000000000000000000038035
:1007C00000000000000000000007C0000000000062
:1007D0000000000007C00000000000000000000F43
:1007E000C00000000000000000001FE0000000004A
:1007F00000000000001FE0000000000000000000FA
:100800003FE00000000000000000003FF00000009A
:100810000000000000007FF0000000000000001F4A
:10082000F87FF0000000000000003FFE7FF00000B5
:1008300000000000003FFF7FF0000000000000000B
:100840001FFFFBE0000000000000000FFFF9FFC0E9
:100850000000000000000FFFF9FFF800000000009A
:100860000007FFF1FFFF00000000000003FC73FF22
:10087000FF80000000000001FE3FFFFF800000003D
:10088000000000FF1E0FFF000000000000007FFEC0
:100890001FFC000000000000003FFFFFF800000008
:1008A000000000000FDFFFE0000000000000001F5C
:1008B00019FFC0000000000000003F3CFF000000E6
:1008C00000000000007E7CF8000000000000000036
:1008D0007FFE7C0000000000000000FFFFFC000025
:1008E000000000000000FFFFFE000000000000000C
:1008F00000FFFFFE0000000000000001FFEFFE000F
:1009000000000000000001FFCFFE0000000000001A
:100910000003FF07FE0000000000000003FC07FECC
:100920000000000000000003F003FE0000000000D3
:100930000000018000FE0000000000000000000038
:100940007E000000000000000000003E00000000EB
:100950000000000000000C00000000000007800004
:10096000FC000003C0000000078001FC000003C081
:10097000000000078001FC000003C00000000780A9
:1009800001E00000001E000000078001E000000000
:100990001E007FE3F79FF9FDE7787BDFC0FFF7FFDD
:1009A000BFFDFDFF787BDFC0FFF7FFBFFDFDFF78D8
:1009B0007BDFC0F0F787BC3DE1FF787BDE00F0F71E
:1009C00087BC3DE1F0787BDE0000F787803DE1E009
:1009D000787BDE007FF7879FFDE1E0787BDE00FF1C
:1009E000F787BFFDE1E0787BDE00F0F787BC3DE1F3
:1009F000E0787BDE00F0F787BC3DE1E0787BDE004D
:100A0000F0F787BC3DE1E0787BDE00FFF7FFBFFD3C
:100A1000E1E07FFBDFC0FFF7FFBFFDE1E07FFBDF31
:100A2000C07CF3F39F3DE1E03E7BCFC000000000BF
:100A300000000000000000FFFFFFFFFFFFFFFFFFBF
:100A4000FFC0FFFFFFFFFD68DB111A31C0FFFFFF92
:100A5000FFFD2B5AFB6AEFC0FFFFFFFFFD4B5B3B27
:100A60001A33C0FFFFFFFFFD6B5BDB6AFDC0535312
:100A7000443133303620616C6C6F636174696F6E22
:100A8000206661696C656400080B000202020000C8
:100A900009040000010202000005240010010524E1
:100AA0000101010424020605240600010705810353
:100AB00010004009040100020A00000007050202BC
:100AC00040000007058302400000040309041201EE
:100AD0000002EF02014041234180000101020301B5
:100AE00041726475696E6F204C4C430041726475AD
:100AF000696E6F2059756E00000000002400270009
:100B00002A002D00300000000000250028002B00E6
:100B10002E003100000000002300260029002C00D8
:100B20002F00040404040403040502020202040367
:100B30000202020206060606060604040202020477
:100B400004040802011040804010204080408008CA
:100B5000020401804020100201108010204040203B
:100B60000000000200090F0000030401000C000057
:100B70000000000000000000000000000000002253
:100B800000FF210000201A2911241FBECFEFDAE058
:100B9000DEBFCDBF23E0A8EDB1E001C01D92A237BA
:100BA000B207E1F711E0A0E0B1E0EAE5F8E502C044
:100BB00005900D92A83DB107D9F715E0C3ECD5E03B
:100BC00004C02197FE010E94F929C23CD107C9F750
:100BD0000E9480200C94202C0C9400000895892BF6
:100BE00049F48AE090E06130710529F086EF9FEFCB
:100BF000672B09F008959093C9028093C802089565
:100C00002F923F924F925F926F927F928F929F921C
:100C1000AF92BF92CF92DF92EF92FF920F931F930A
:100C2000CF93DF93CDB7DEB76D970FB6F894DEBFE5
:100C30000FBECDBF7A8769875C874B873E872D873C
:100C4000188B0F87FB0111821082FA01118210822A
:100C5000F80111821082F901118210822090430361
:100C600030904403209141032C83F0903E032F2DBC
:100C700030E0388F2F8B46E0F49E900111243E83A4
:100C80002D83A0903203B0903303E0903F03E8E05F
:100C9000EE9E6001112491012C5F3F4F3A8B298B0E
:100CA0002E5F3F4F3C8B2B8B245031093A8F298F7D
:100CB0002A5F3F4F3B832A8398878F8344244A943B
:100CC000542CAFEFBFEF8FEF9FE79C8F8B8F0FEF11
:100CD0001FE770E060E050E040E0EF81F88581912F
:100CE000F887EF83882309F4C0C02114310409F484
:100CF00087C08A3041F4EA81FB8184918E9D600D2A
:100D0000711D1124E8CF8D3041F3E989FA8994915E
:100D1000EB89FC892491891700F32817F0F2E98DFB
:100D2000FA8D25913491891BF7E08F9F200D311D9D
:100D30001124F901329684918983319694919D8B87
:100D4000319684918E8B319684912A5F3F4FF901C1
:100D5000F491FD8F2C812223F1F03981632E712CC7
:100D6000680E711C87FD7A942F89388D629E400130
:100D7000639E900C729E900C1124840E951EA814F4
:100D8000B9044CF4EA81FB8194919E9D600D711D24
:100D9000112450E040E02F2D382F3203C0011124E0
:100DA000840F951F2E2D3D8D3203F00111249F01DC
:100DB000260F371F801791070CF48C01EB8DFC8DEB
:100DC0002E173F0714F43C8F2B8FF981FF9D800D68
:100DD000911D11240197A817B9070CF4DC018D8926
:100DE0008E9D200D311D11242150310942165306CC
:100DF0000CF429019E899F9D400D511D11246DCF3A
:100E00008A3019F46C0D7D1D66CF8D3009F465CFE5
:100E10002C81222359F08D819E81840F951FA81665
:100E2000B90624F46C0D7D1D50E040E02D813E811B
:100E3000240F351FC9010197A817B9070CF4DC016D
:100E4000C601860F971F0197481659060CF42C010E
:100E5000401751070CF48A018B8D9C8D6817790718
:100E600014F47C8F6B8FA90138CFA017B1075CF009
:100E7000E985FA8511830083A01BB10B1196ED85DE
:100E8000FE85B183A0832B8D3C8D421653066CF0FA
:100E9000EB85FC8531832083421A530AFFEF4F1AFA
:100EA0005F0AEF85F889518240826D960FB6F894FB
:100EB000DEBF0FBECDBFDF91CF911F910F91FF908D
:100EC000EF90DF90CF90BF90AF909F908F907F90EA
:100ED0006F905F904F903F902F900895FC0180910C
:100EE000C702882311F13FB7F89482E08093E900AC
:100EF0002091F200822F90E01816190614F481E078
:100F000090E0882339F0289844E64093C602409147
:100F1000F1004083222339F02091F200211103C017
:100F20002BE62093E8003FBF08958FEF9FEF0895D1
:100F30002FB7F89483E08093E9009091E800892F1F
:100F4000807295FF04C09091F20080E4891B2FBF4E
:100F500008958091BE0281110DC082E08093BA0293
:100F600084E08093BB021092BD021092BC0281E02B
:100F70008093BE028AEB92E0089581508F3008F092
:100F800047C0E82FF0E0E953F84F0C94F929E40743
:100F9000E807D607DC07E007080808080808EB0799
:100FA000F107F507F907FF0708080308809180009B
:100FB0008F77809380000895809180008F7DF9CF96
:100FC00080918000877FF5CF84B58F7784BD0895A9
:100FD00084B58F7DFBCF809190008F7780939000B8
:100FE0000895809190008F7DF9CF80919000877F48
:100FF000F5CF8091C0008F778093C00008958091D5
:10100000C0008F7DF9CF8091C200877F8093C2009E
:101010000895CF93DF93282F30E0F901E05AF44F81
:101020008491F901EF5BF44FD491F901EE5DF44F37
:10103000C491CC23A1F081110E94BD07EC2FF0E0F8
:10104000EE0FFF1FEC5EF44FA591B491EC91ED23F0
:1010500081E090E009F480E0DF91CF91089580E095
:1010600090E0FACF1F93CF93DF93282F30E0F90160
:10107000E05AF44F8491F901EF5BF44FD491F901F8
:10108000EE5DF44FC491CC23A9F0162F81110E947C
:10109000BD07EC2FF0E0EE0FFF1FEA5FF44FA591C4
:1010A000B4918FB7F894EC91111108C0D095DE235C
:1010B000DC938FBFDF91CF911F910895DE2BF8CF86
:1010C000CF93DF9390E0FC01EF5BF44F24918E5DB2
:1010D000944FFC0184918823C9F090E0880F991FF8
:1010E000FC01E850F54FA591B491FC01EA5FF44F83
:1010F000C591D49161110DC09FB7F8948C91209542
:1011000082238C938881282328839FBFDF91CF91EE
:101110000895623051F49FB7F8943C91822F8095E6
:1011200083238C93E8812E2BEFCF8FB7F894EC912B
:101130002E2B2C938FBFEACF1F93CF93DF93182FC3
:10114000EB0161E00E946008209739F460E0812F94
:10115000DF91CF911F910C943208CF3FD10511F44C
:1011600061E0F5CFE12FF0E0E05AF44FE491E15077
:10117000EF3008F07FC0F0E0E054F74F0C94F9290D
:10118000CF08D708DC08E608F0083A093A093A0916
:10119000FA0804090E09180925093A092D0984B528
:1011A000806884BDC7BDDF91CF911F91089584B53C
:1011B000806284BDC8BDF7CF809180008068809335
:1011C0008000D0938900C0938800EDCF809180008B
:1011D000806280938000D0938B00C0938A00E3CF1D
:1011E00080918000886080938000D0938D00C093B0
:1011F0008C00D9CF80919000806880939000D0932C
:101200009900C0939800CFCF809190008062809326
:101210009000D0939B00C0939A00C5CF809190001E
:10122000886080939000D0939D00C0939C00BBCFBA
:101230008091C00080688093C0008091C0008F7B47
:101240008093C000C093CF00AECF8091C000806279
:101250008093C000C093D000A6CF8091C200886068
:101260008093C2008091C2008B7F8093C200C093A4
:10127000D20099CFC038D1050CF072CF67CF3FB7FD
:10128000F8948091B6029091B702A091B802B09103
:10129000B90226B5A89B05C02F3F19F00196A11DE4
:1012A000B11D3FBFBA2FA92F982F8827BC01CD01B0
:1012B000620F711D811D911D42E0660F771F881F0F
:1012C000991F4A95D1F708958F929F92AF92BF923E
:1012D000CF92DF92EF92FF924B015C010E943F0997
:1012E0006B017C010E943F096C197D098E099F09E1
:1012F000683E734081059105A8F321E0821A9108A8
:10130000A108B10888EEC80E83E0D81EE11CF11CCC
:1013100081149104A104B10429F7FF90EF90DF90AC
:10132000CF90BF90AF909F908F9008954091AB0267
:101330005091AC022091A9023091AA0242175307A2
:10134000B4F49091E8009570E1F39091E80092FD7B
:1013500019C08093F1008091AB029091AC0201968C
:101360008F739927892B19F48EEF8093E800809171
:10137000AB029091AC0201969093AC028093AB02C9
:1013800081E0089580E00895DF92EF92FF920F933D
:101390001F93CF93DF93D82E8A01EB017B01E40EDC
:1013A000F51ECE15DF0559F0D7FE12C0FE0184915F
:1013B0000E94960921968111F4CF0FEF1FEFC8010B
:1013C000DF91CF911F910F91FF90EF90DF900895E3
:1013D0008881EECF0F931F93CF93DF931F92CDB7EA
:1013E000DEB782E0898342E450E068E87AE080E892
:1013F0000E94C4090E94A907DC0112960D911C915C
:101400000115110589F0D801ED91FC910280F3815D
:10141000E02DBE016F5F7F4FC801099597FD04C0A5
:10142000F80100851185ECCF89810F90DF91CF9174
:101430001F910F910895615030F02091F100FC014F
:1014400020830196F8CF289884E68093C6020895F9
:101450008F929F92AF92BF92CF92DF92EF92FF92C4
:101460000F931F93CF93DF936C017B018A018091CF
:101470001B01882309F45CC08091C702882309F40A
:1014800057C08091AF0280FF05C08091E00082606C
:101490008093E000E801B12C8AEFA82E93E0892E1A
:1014A0002AE3922E209711F4BB20D9F10E949807CD
:1014B00081110AC0AA94AA20D9F161E070E080E00D
:1014C00090E00E946409EECF8C171D0611F00CF01D
:1014D0008C2F9FB7F8948092E9002091E80025FDB9
:1014E00002C09FBFDFCF282F30E0C21BD30BF70114
:1014F000815020F041914093F100FACFE20EF31EAB
:10150000BB2021F09092E800B12CEBCF8091E80055
:1015100085FDE7CF9092E800BB24B394209709F3B0
:10152000F3CF5D9884E68093B002101611063CF06C
:1015300081E090E0F6019383828310E000E0C8012F
:10154000DF91CF911F910F91FF90EF90DF90CF909F
:10155000BF90AF909F908F900895CF93DF931F928D
:10156000CDB7DEB76983DC01ED91FC910280F38198
:10157000E02D41E050E0BE016F5F7F4F09950F9075
:10158000DF91CF91089583E08093E9008091F2008C
:10159000882319F08AE38093E80008950E94980751
:1015A00090E00895CF93DF931F92CDB7DEB7FC0193
:1015B0008485958597FD08C02FEF3FEF35872487F9
:1015C0000F90DF91CF910895CE0101960E946E0792
:1015D000019719F4898190E0F3CF8FEF9FEFF0CF5F
:1015E0000F931F93CF93DF931F92CDB7DEB78C017C
:1015F000FC018485958597FF0BC0CE0101960E9462
:101600006E07019771F4898190E0F80195878487CE
:10161000F801848595850F90DF91CF911F910F91EF
:1016200008958FEF9FEFF1CFFC018485958597FD9D
:101630000BC09FB7F89482E08093E9008091F2009C
:101640009FBF90E0019608959FB7F89482E0809341
:10165000E9008091F2009FBF90E0089508950895F9
:10166000AF92BF92CF92DF92EF92FF920F931F93B0
:10167000CF93DF936C017B018B01040F151FEB01EE
:101680005E01AE18BF08C017D10759F06991D601A5
:10169000ED91FC910190F081E02DC6010995892B17
:1016A00079F7C501DF91CF911F910F91FF90EF90D6
:1016B000DF90CF90BF90AF90089520913E02260F0B
:1016C0003327331F21323105ECF420916202FC01F3
:1016D00090E080E0243069F082E00895A0913E021D
:1016E0002191AC01425E5D4FA40FB52FB11D2C932B
:1016F0000196861798F380913E02680F60933E0230
:1017000080E0089581E008951092620281E0809364
:1017100064021092630261E082E00E94320861E09C
:1017200083E00E943208E9EBF0E080818E7F8083C5
:1017300080818D7F808388E48093B80085E48093E6
:10174000BC000895CF93DF9391E090931D0288230E
:10175000B9F0C091B800D091BA008091BC008A7BEA
:101760008093BC0060E082E00E94320860E083E089
:101770000E9432080E94840BD093BA00C093B80034
:10178000DF91CF9108950895FC016370668B848189
:10179000958126813781613039F0633029F0918756
:1017A00080873387228708953187208793878287B0
:1017B00008952F923F924F925F926F927F928F92F5
:1017C0009F92AF92BF92CF92DF92EF92FF920F93D0
:1017D0001F93CF93DF93CDB7DEB76A970FB6F89418
:1017E000DEBF0FBECDBF9A8F898F7A8369834A018E
:1017F000D22E18870F833701BC2CDC0159962D910E
:101800003C915A972115310509F015C118968D9113
:101810009C911997681779070CF0D7C11A968D918A
:101820009C91481759070CF0D0C14C2C512CB6E0B4
:10183000CB9E600D711D11247C876B8716161706D1
:101840000CF0C3C1EA2DF0E0FA87E98793E0EE0FD0
:10185000FF1F9A95E1F7F88BEF87CF01840F951F53
:10186000181619060CF0B1C1A98DBA8D58968C9135
:10187000811104C0BFEABD1508F4D394A98DBA8DB7
:10188000ED91FC9111970284F385E02DCD0109952E
:10189000B5E0DB9EC0011124E981FA81FC83EB8372
:1018A000312C212C9C0124543F4F388F2F8B4A2DF3
:1018B00050E05E8B4D8BEF89F88DE20DF31D449166
:1018C0009E828D82D12CC12C69817A81620D731D1B
:1018D0007A8B698B842F90E09C8B8B8BE98DFA8DB2
:1018E000A081B18140FF82C0F1E0BF126FC0AF1292
:1018F0006DC01C96ED91FC912F813885A4014C0D93
:101900005D1D69897A89898D9A8D0995EB89FC8994
:10191000F595E7954E2F5FEFC51AD50A6D817E814B
:101920008D899E89680F791F7E836D8398E0C91623
:10193000D10481F6AFEF2A1A3A0AEB81FC81E40D5B
:10194000F51DFC83EB83F5E02F16310409F0B3CFCE
:101950002F81388526153705B9F0A98DBA8DED91FF
:10196000FC91B1E0BB1257C0AB1255C069817A81BE
:101970006B5F7F4F0088F189E02D830128E030E024
:10198000A401898D9A8D0995A98DBA8DED91FC914F
:1019900011970688F789E02DCD016A960FB6F89465
:1019A000DEBF0FBECDBFDF91CF911F910F91FF9092
:1019B000EF90DF90CF90BF90AF909F908F907F90EF
:1019C0006F905F904F903F902F9009941E96ED91ED
:1019D000FC91EF80F88409851A8592014D815E8122
:1019E0006B817C81898D9A8D099590CF2F81388567
:1019F0002615370509F48ACF31E0B31207C0A312C8
:101A000005C01C96ED91FC91930178CF1E96ED9147
:101A1000FC917301E0CF6B857C85641975090684A0
:101A2000F785E02D73010F8518899201A401898D36
:101A30009A8D0995A9CFF9013496949132974591E1
:101A40005491D91AB7E0DB9E400D511D1124F901C4
:101A5000259134913C8B2B8BFA0125903490FA011F
:101A60003296749031963491398B329664903196D7
:101A7000449041E04C1518F04A1508F07FC0662DDF
:101A8000062C000C770B7C836B83842D042C000CBC
:101A9000990B9E838D83A98DBA8DED91FC91119741
:101AA0000284F385E02DCD010995512CD12CC12C58
:101AB000EA2DF0E0FA87E9872B2D30E03C872B8771
:101AC000A401440D511D47FC5A95588F4F8B6981D5
:101AD0007A81660D711D67FC7A957E876D8779899D
:101AE000C71608F051CF2C2D30E04D815E81420F9A
:101AF000531FA985BA854A9FC0014B9F900D5A9FDD
:101B0000900D1124FC01E80DF91DF88BEF87852D50
:101B1000612C4F89588D420F531F5E8B4D8B67147C
:101B200008F050C044244394480E877041F4C1012A
:101B30000196EB89FC89E20DF31DD4901C01D7FEC0
:101B400019C0A98DBA8DED91FC91662D70E0B1E0C0
:101B5000BB1219C0AB1217C02D853E85620F731FD3
:101B60000484F585E02D2F8138854D895E89898D26
:101B70009A8D0995DD0C6394842DD1CF1E821D8230
:101B80001C821B8288CF4B815C81640F751FAB85E3
:101B9000BC856A9FC0016B9F900D7A9F900D1124A8
:101BA00069817A81680F791F0684F785E02DEF80BF
:101BB000F88409851A859D014F855889898D9A8DEC
:101BC0000995D8CF570CC3948ACF6A960FB6F8946C
:101BD000DEBF0FBECDBFDF91CF911F910F91FF9060
:101BE000EF90DF90CF90BF90AF909F908F907F90BD
:101BF0006F905F904F903F902F9008958F929F929B
:101C0000AF92CF92EF92FF920F931F93CF93DF93F8
:101C1000EC01262F898D9A8D009709F051C06A300A
:101C2000D1F41D861C868D8948E0849F9001112483
:101C30008E859F85820F931F9F878E8781E090E01E
:101C4000DF91CF911F910F91FF90EF90CF90AF90C8
:101C50009F908F9008956D3089F3CC88AD888F89DF
:101C60008823C1F08C859D8536E0C39E800D911D33
:101C70001124488559854817590764F44E855F85B6
:101C80001D861C8638E0A39EC0011124840F951F79
:101C90009F878E87EA88FB88088919894E855F852A
:101CA0006C857D85CE010E94D90B2C898C859D8504
:101CB00046E0249F800D911D11249D878C87BECF07
:101CC0006A3069F41D861C86FC013896E4912D89E2
:101CD0008E859F85E29F800D911D1124ADCF6D30C3
:101CE00009F4ACCFFC0134963491631708F4A6CF05
:101CF0003296E491E61708F4A1CFFC013296859064
:101D00009490462F431B342F47E0349F800C911C46
:101D10001124F401329634913196E4913323A9F1E0
:101D2000EE2399F1CC88F4013596E491AD884F8982
:101D3000442301F10E2E000CFF0BE30FF11DCE9E8C
:101D4000A001CF9E500D11246C857D85460F571F35
:101D500068857985641775076CF44E855F851D86E7
:101D60001C86FC013896E491AE9E400D511D112455
:101D70005F874E87EA88FB88088919894E855F85C9
:101D80006C857D85CE010E94D90BF4013496E491D7
:101D90002C898C859D85E29F800D911D11248DCF0E
:101DA0006F927F928F929F92AF92BF92CF92DF926B
:101DB000EF92FF920F931F93CF93DF93EC016B0190
:101DC0005A0139014801E881F9810284F385E02D47
:101DD0000995E881F9810288F389E02D8701930153
:101DE000A501B601CE010995A501480D591D415027
:101DF0005109E881F9810288F389E02D9301B60148
:101E0000CE010995E881F9810088F189E02D9401DE
:101E1000A501B601CE010995C60CD71CB6016150CB
:101E20007109E881F9810088F189E02D9401A5010B
:101E3000CE010995E881F9810688F789E02DCE0168
:101E4000DF91CF911F910F91FF90EF90DF90CF9096
:101E5000BF90AF909F908F907F906F9009946F92FA
:101E60007F928F929F92AF92BF92CF92DF92EF922A
:101E7000FF920F931F93CF93DF935C01EB016A01F5
:101E8000490138018701DC01ED91FC91621773076C
:101E900019F5641675062CF0962D872D3A01C92E7A
:101EA000D82E9601261937092F5F3F4F048CF58DE8
:101EB000E02DA301BE01C5010995DF91CF911F91CE
:101EC0000F91FF90EF90DF90CF90BF90AF909F90D9
:101ED0008F907F906F9008954615570591F42617BF
:101EE000370724F0892D4B01C22FD82F9E012819C6
:101EF00039092F5F3F4F068CF78DE02DA601B40105
:101F0000DACF0284F385E02D0995D501ED91FC919E
:101F10000488F589E02D83019401A601BE01C50165
:101F20000995D501ED91FC910688F789E02DC50151
:101F3000DF91CF911F910F91FF90EF90DF90CF90A5
:101F4000BF90AF909F908F907F906F900994EF9289
:101F5000FF920F931F93DC011A960D911C911B9712
:101F600018962D913C911997ED91FC9100A0F1A14B
:101F7000E02D7B0150E040E070E060E009951F91AA
:101F80000F91FF90EF9008954F925F926F927F9222
:101F90008F929F92AF92BF92CF92DF92EF92FF9279
:101FA0000F931F93CF93DF936C012B015A013901DB
:101FB0004801DC01ED91FC910284F385E02D099547
:101FC000E201640C751CD601ED91FC91C615D70594
:101FD0005CF40088F189E02D87019401A501BE0120
:101FE000C60109952196EFCF0688F789E02DC60135
:101FF000DF91CF911F910F91FF90EF90DF90CF90E5
:10200000BF90AF909F908F907F906F905F904F9018
:1020100009948F929F92AF92BF92CF92DF92EF92EC
:10202000FF920F931F93CF93DF93EC015B014A0163
:102030006901E881F9810284F385E02D0995950114
:102040002C0D3D1D21503109E881F9810488F58965
:10205000E02D78018401A401B501CE010995E88144
:10206000F9810688F789E02DCE01DF91CF911F918C
:102070000F91FF90EF90DF90CF90BF90AF909F9027
:102080008F9009948F929F92AF92BF92CF92DF92DE
:10209000EF92FF920F931F93CF93DF93EC015B01BD
:1020A0004A0169017801E881F9810284F385E02D14
:1020B0000995C80CD91C860101501109E881F981E4
:1020C0000488F589E02D9501A401B501CE0109959B
:1020D000E881F9810688F789E02DCE01DF91CF9163
:1020E0001F910F91FF90EF90DF90CF90BF90AF9036
:1020F0009F908F900994EF92FF920F931F93DC01B2
:10210000ED91FC9100A0F1A1E02D09951F910F9197
:10211000FF90EF9008950F931F93DC01ED91FC91D8
:10212000068CF78DE02D09951F910F9108952F9240
:102130003F924F925F926F927F928F929F92AF9257
:10214000BF92CF92DF92EF92FF920F931F93CF93A4
:10215000DF93CDB7DEB7A6970FB6F894DEBF0FBEFC
:10216000CDBF2B013A0169011EA30DA3FE86ED86AA
:102170002617370794F02FE3C216D10409F447C19C
:1021800020E4C22ED12C6034710509F049C1362DEE
:10219000272D3C01832F922F04C030E4C316D104B5
:1021A00049F43FE3A32EB12C1BC06DA17EA19EA3D9
:1021B0008DA33CC13DA12EA15EA34DA3632E722E23
:1021C0005FE3C52ED12CEDCF3DA12EA19EA38DA303
:1021D000C301632E722E520126014FE3C42ED12C6F
:1021E0009301ADA1BEA12A1B3B0BA6014A195B09B5
:1021F000FC01EA1BFB0BF88FEF8BB2016A197B091C
:102200007E836D834C0186189708C2018C199D0945
:10221000988B8F877601C414D50419F091E0E91AE0
:10222000F108150119861A861B861C8619821A82E6
:102230001B821C826F89788D072E000C880B990BEE
:102240006B8B7C8B8D8B9E8BCA01550FAA0BBB0BA6
:10225000898F9A8FAB8FBC8F4D815E81052E000CCC
:10226000660B770B4D8F5E8F6F8F78A3B901330F9D
:10227000880B990B69A37AA38BA39CA3E214F304A4
:102280000CF454C069817A818B819C81298D3A8DAF
:102290004B8D5C8D0E94DA290DA11EA1020F131F28
:1022A00069857A858B859C852D8D3E8D4F8D58A1B6
:1022B0000E94DA296DA17EA1620F731F89819A8124
:1022C000AB81BC8129A13AA14BA15CA1820F931FD4
:1022D000A41FB51F89839A83AB83BC8389859A85A4
:1022E000AB85BC852B893C894D895E89820F931F04
:1022F000A41FB51F89879A87AB87BC8760177107B2
:102300002CF0962F872FB801092F182F9801261B24
:10231000370B2F5F3F4F0D851E85A1018AE293E0A9
:102320000E948B103FEF231A330AA8CFA401092C77
:10233000000C660B770B49835A836B837C83910176
:102340002C193D09D4010E94FF296B017C019101E8
:102350002A193B09AF89B88D0E94FF294B015C0106
:102360006F857889072E000C880B990B6F87788B07
:10237000898B9A8B8D819E81092E000CAA0BBB0B39
:102380008D839E83AF83B887421453040CF471C0CD
:10239000C701B6012F85388949895A890E94DA29EF
:1023A0008301020F131FC501B4012D813E814F81AE
:1023B00058850E94DA296DA17EA1620F731F2981C1
:1023C0003A814B815C81C20ED31EE41EF51E8B89BF
:1023D0009C89AD89BE89880E991EAA1EBB1E6017F6
:1023E00071072CF0962F872FB801092F182F98010D
:1023F000261B370B2F5F3F4F0D851E85A1018AE2FB
:1024000093E00E948B109FEF291A390ABDCF6034E8
:10241000710509F4CACE272D6DA07EA04DA32EA371
:102420004C145D0409F0D0CEB3013C014DA15EA176
:10243000461557052CF4962D872D3A019DA38EA3A2
:102440006615770544F08DA19EA18617970714F4B1
:102450007EA36DA3B3012DA13EA1261B370B2F5FD9
:102460003F4F0D851E854FE350E08AE293E00E94C6
:102470008B10A6960FB6F894DEBF0FBECDBFDF91CE
:10248000CF911F910F91FF90EF90DF90CF90BF9071
:10249000AF909F908F907F906F905F904F903F9004
:1024A0002F9008950F931F93DC01ED91FC91048C04
:1024B000F58DE02D09951F910F910895DC01ED91A7
:1024C000FC910084F185E02D09943F924F925F9238
:1024D0006F927F928F929F92AF92BF92CF92DF9234
:1024E000EF92FF920F931F93CF93DF935C017B01D9
:1024F0004A016901390187E0680E711C93E0759407
:1025000067949A95E1F72B01400E511E10E000E010
:10251000312CD0E0C0E0CE0187709927330C892B95
:1025200059F4FE0183E0F595E7958A95E1F7E00F10
:10253000F11FE80DF91D349037FE0AC021E030E0AC
:10254000A701B5016C0F7D1F8AE293E00E945E1225
:102550002196CC16DD06F9F68FEFE81AF80A060D7B
:10256000171DE414F504A9F6DF91CF911F910F9187
:10257000FF90EF90DF90CF90BF90AF909F908F90A3
:102580007F906F905F904F903F9008952F923F9271
:102590004F925F926F927F928F929F92AF92BF9273
:1025A000CF92DF92EF92FF920F931F93CF93DF931F
:1025B00000D000D000D0CDB7DEB73C016A013E8329
:1025C0002D83FC82EB825801A41AB50AB7FE03C022
:1025D000B194A194B1088D809E80861A970A97FEC7
:1025E00003C09194819491088A149B045CF0902F0D
:1025F000812F0D811E819D838E839C2D8D2D6B01DE
:10260000692F782F0C151D055CF09D818E817E83CE
:102610006D83692F782F902F812F8601C92ED82E98
:102620001601201A310A2B012D813E81421A530ACC
:1026300057FE03C0519441945108710137FE03C005
:102640003FEFE31AF30AF594E7948D819E81861794
:1026500097075CF5A1E0B0E0BA83A983C016D10664
:102660004CF1D301ED91FC910484F585E02D2B8193
:102670003C81A8016D817E818A149B041CF04D81F0
:102680005E81B801C3010995E418F508F7FE0AC098
:102690002D813E8189819A81280F391F3E832D83A8
:1026A000E20CF31C0F5F1F4FD9CF2FEF3FEF3A83A0
:1026B0002983D4CF26960FB6F894DEBF0FBECDBFC8
:1026C000DF91CF911F910F91FF90EF90DF90CF900E
:1026D000BF90AF909F908F907F906F905F904F9042
:1026E0003F902F900895E0918E0280918D02E8171F
:1026F00030F4F0E0E850FE4F808190E008958FEFD5
:102700009FEF089590918E0280918D022FEF3FEF01
:10271000981748F4E92FF0E0E850FE4F208130E0B0
:102720009F5F90938E02C901089580918D029091D0
:102730008E02891B990B0895CF92DF92EF92FF9240
:102740000F931F93CF93DF937C01CB018A012091DC
:10275000CD02222389F0EB016B01C40ED51ECC15EE
:10276000DD0569F06991D701ED91FC910190F0814F
:10277000E02DC7010995F3CF642F0E945D0BC801BE
:10278000DF91CF911F910F91FF90EF90DF90CF904D
:102790000895CF93DF931F92CDB7DEB76983209161
:1027A000CD022223F9F02091CA02203258F021E014
:1027B00030E0FC013383228390E080E00F90DF91D2
:1027C000CF9108958091CB02E82FF0E0E852FE4FC0
:1027D000998190838F5F8093CB028093CA0281E0BE
:1027E00090E0ECCF61E0CE0101960E945D0BF7CF47
:1027F000CF92DF92EF92FF920F931F93CF93DF93CD
:10280000D091CA0281E0D13208F09CC0C091CC02C4
:102810000E943F096B017C018091620281116CC0B2
:1028200082E08093620281E0809364028FEF809364
:10283000610210928602D0938502A8EDB1E0E5E630
:10284000F2E080E0D8138DC0109287028091870259
:10285000CC0FC82BC093870280916302813009F0AE
:1028600084C0109263020E943F096B017C01809139
:1028700087028093BB008091190290911A02A09167
:102880001B02B0911C02892B8A2B8B2BA1F00E947A
:102890003F090091190210911A0220911B023091F8
:1028A0001C026C197D098E099F0906171707280756
:1028B000390708F442C08091BC0083FDD8CF85EC75
:1028C0008093BC000E943F096B017C0180916202F1
:1028D000823009F44CC0809161028F3F09F469C0D5
:1028E00080916102803209F466C080916102803378
:1028F00009F463C084E026C08091190290911A0205
:10290000A0911B02B0911C02892B8A2B8B2B09F4FE
:1029100083CF0E943F090091190210911A02209161
:102920001B0230911C026C197D098E099F09061744
:1029300017072807390708F06FCF809118020E9407
:10294000A20B85E01092CB021092CA021092CD0227
:10295000DF91CF911F910F91FF90EF90DF90CF907B
:1029600008959D9191938F5F6DCF85EEA9CF809152
:10297000190290911A02A0911B02B0911C02892B9E
:102980008A2B8B2B09F4A2CF0E943F0900911902D8
:1029900010911A0220911B0230911C026C197D09C2
:1029A0008E099F09061717072807390708F08ECFE9
:1029B000C4CF80E0C7CF82E0C5CF83E0C3CFEF9222
:1029C000FF920F931F93CF93DF93EC01EC80FD8078
:1029D0006E157F050CF070C057FF04C0240F351F23
:1029E00050E040E08E819F81FA01E20FF31F8E17C5
:1029F0009F071CF49C01241B350B121613060CF0C8
:102A00005BC0922F842F8695869586958E9DD001EA
:102A10008F9DB00D11246A0F7B1FAF8DB8A1A60F3B
:102A2000B71F477049F188E0841B482F682F70E07A
:102A3000FB01EC54FF4FE491281708F063C0621BC0
:102A400071092FEF30E002C0359527956A95E2F7BE
:102A5000E2230130110539F0B0F10230110561F5C2
:102A60008C91E82702C08C91E82BEC93941720F10D
:102A70002C813D81A20FB31FE92FE41BE83078F0D1
:102A80000230110521F58E2F9C9190959C932C81FD
:102A90003D81A20FB31F88508830B0F7E770EE2356
:102AA00059F0F0E0E455FF4FE49101301105F9F0E1
:102AB00010F10230110519F1DF91CF911F910F91A3
:102AC000FF90EF900895E0958C91E823CECF81E0C0
:102AD0000115110509F480E081959E2F8C932C81BE
:102AE0003D81A20FB31F98509830C0F7D7CF8C917B
:102AF000E82BEC93E1CFE0958C91E823FACF8C9111
:102B0000E827F7CF0130110509F4ADCFE0F202302C
:102B1000110509F4A5CFAE0DBF1DAECF0F931F93C6
:102B2000CF93DF9377FF04C0260F371F70E060E07C
:102B3000DC011496CD91DC91FB01E20FF31FCE175F
:102B4000DF071CF49E01261B370B121613064CF5EB
:102B5000FA0157FD3796A3E0F595E795AA95E1F7B9
:102B6000EC9FD001ED9FB00DFC9FB00D11246A0FBA
:102B70007B1FDC015F96ED91FC91E60FF71F47701C
:102B8000552781E090E001C0880F4A95EAF7482F69
:102B90000130110559F0A8F02E0F3F1F023011052A
:102BA000E1F0DF91CF911F910F9108952E0F3F1FFC
:102BB000E217F307B1F38191DF011197842B8C9316
:102BC000F7CF80952E0F3F1FE217F30751F3919136
:102BD000DF01119798239C93F7CFE217F30709F3CE
:102BE0008191DF01119784278C93F7CF0F931F9367
:102BF000FA01DC0156964C9156974230E9F0433089
:102C0000A1F1413061F514964D915C91DA01AE1B52
:102C1000BF0BFD01E21BF30B77FD0BC0DC01169629
:102C20004D915C916417750724F4AB01BF010E94BC
:102C30008E151F910F91089514964D915C91DA01B4
:102C4000A61BB70BBD0161507109DC0116964D91B1
:102C50005C91DA01AE1BBF0BFD01E21BF30B77FDAC
:102C6000E8CFAF010E94DF14E4CF16964D915C913E
:102C7000DA01A61BB70BBD0161507109CDCF0F93CF
:102C80001F93FA01DC0156964C9156974230A9F0F9
:102C9000433091F1413019F514964D915C91DA0170
:102CA000AE1BBF0BFD013197F7FD04C0AB01BF01A7
:102CB0000E94DF141F910F91089514964D915C911D
:102CC000DA01A61BB70BBD01DC0116964D915C9194
:102CD000DA01AE1BBF0BFD013197621B730BF7FDD1
:102CE000E9CFDC0116964D915C91E417F50714F7D6
:102CF000AF010E948E15DECF16964D915C91DA01E0
:102D0000A61BB70BBD01621B730BCECFFC0177FD79
:102D100064C080859185681779070CF05EC057FD07
:102D20005CC082859385481759070CF056C0868988
:102D30008230B1F0833029F1813041F48481958172
:102D4000841B950BAB01BC01615071092130310529
:102D500009F108F443C02230310509F463C0089535
:102D600084819581DC01A61BB70BBD0161507109FF
:102D700086819781DC01A41BB50BAD01415051093F
:102D8000E5CF86819781861B970BBA01AC01415034
:102D90005109DCCFCA0157FD0796A3E095958795A9
:102DA000AA95E1F7A481B5818A9F90018B9F300D90
:102DB0009A9F300D1124620F731F078CF0A1E02D34
:102DC000E60FF71F4770552721E030E001C0220FC2
:102DD0004A95EAF78081822B80830895CA0157FDC6
:102DE000079633E0959587953A95E1F7A481B581EB
:102DF0008A9F90018B9F300D9A9F300D1124620F96
:102E0000731F078CF0A1E02DE60FF71F47705527C1
:102E100081E090E001C0880F4A95EAF780959081A3
:102E20008923DACFCA0157FD079623E09595879548
:102E30002A95E1F7A481B5818A9F90018B9F300D7F
:102E40009A9F300D1124620F731F078CF0A1E02DA3
:102E5000E60FF71F4770552721E030E001C0220F31
:102E60004A95EAF780818227B7CF08958EBD00008A
:102E70000DB407FEFDCF8EB50895EF92FF920F932C
:102E80001F93CF93DF937C01C62F809147039091CE
:102E90004803009709F459C020914B0331E0309367
:102EA000CD022093CC021092CB021092CA02DC0118
:102EB000ED91FC910190F081E02D60E00995870192
:102EC000EE24E394F12CD1E0C1508091470390911E
:102ED0004803CF3F91F1B0E2EB16F104D8F00E9425
:102EE000F813809147039091480320914B03D093AE
:102EF000CD022093CC021092CB021092CA02DC01C8
:102F0000ED91FC910190F081E02D60E00995EE24B7
:102F1000E394F12C8091470390914803F801649168
:102F2000DC01ED91FC910190F081E02D0995BFEF5E
:102F3000EB1AFB0A0F5F1F4FC7CFDF91CF911F9195
:102F40000F91FF90EF900C94F813E0915703F091DC
:102F50005803908180915D03809589238083870148
:102F6000C15008F438C0F801849120914503309194
:102F70004603232B29F00E9436170F5F1F4FF0CF17
:102F800028E030E040E8E0915303F0915403909141
:102F90005B03582F5423D9F05081952B9083E091F7
:102FA0005503F0915603908150915C03952B9083CB
:102FB000E0915503F0915603508190915C039095F8
:102FC00095239083469521503109E9F6D6CF50815B
:102FD00090959523E3CFDF91CF911F910F91FF90B3
:102FE000EF9008951F93CF93DF93EC018D8D9E8D0D
:102FF000009721F1162F29A131E03093CD022093C3
:10300000CC021092CB021092CA02DC01ED91FC912D
:103010000190F081E02D60E009958D8D9E8DDC01A1
:10302000ED91FC910190F081E02D612F09958D8D3E
:103030009E8DDF91CF911F910C94F813ADA5BEA585
:103040009C918BA9809589238C938B8D9C8D892B4A
:1030500031F0862FDF91CF911F910C94361728E025
:1030600030E080E8A9A5BAA599A9462F4823C1F068
:103070004C91942B9C93ABA5BCA59C914AA9942BF5
:103080009C93ABA5BCA54C919AA9909594239C9335
:1030900086952150310931F7DF91CF911F91089525
:1030A0004C9190959423E6CF8CBD9DBD0895DF9201
:1030B000EF92FF920F931F93CF93DF93809147037B
:1030C00090914803892B09F498C020915F033091B7
:1030D0006003409161035091620360E074E284EF09
:1030E00090E00E94B82920513109410951095695B3
:1030F0004795379527952093B80065E08FE79BE0CB
:103100000E943D1760912E0361508AE293E00E9475
:10311000F2172091300330913103C901079697FDD2
:10312000079633E0959587953A95E1F720912E0320
:1031300030912F03829F8001839F100D929F100D6D
:103140001124C0914903D0914A0380914703909183
:1031500048030C0F1D1F009709F48FC020914B03EB
:1031600031E03093CD022093CC021092CB0210922A
:10317000CA02DC01ED91FC910190F081E02D60E448
:103180000995EE24E394F12CDD24D3948091470338
:10319000909148030C171D0709F446C0B0E2EB16E6
:1031A000F104D8F00E94F8138091470390914803EE
:1031B00020914B03D092CD022093CC021092CB02EF
:1031C0001092CA02DC01ED91FC910190F081E02D9A
:1031D00060E40995EE24E394F12C809147039091EB
:1031E00048036991DC01ED91FC910190F081E02DA3
:1031F0000995BFEFEB1AFB0AC9CF80914503909167
:103200004603892B31F080916803909169030E94F5
:103210005418E0915903F0915A03908180915E0314
:1032200080958923808369CF0E94F813809147039A
:1032300090914803892B09F461C020916303309178
:103240006403409165035091660360E074E284EF8B
:1032500090E00E94B8292051310941095109569541
:103260004795379527952093B800DF91CF911F910F
:103270000F91FF90EF90DF900895E0915703F09148
:103280005803808190915D03892B80830C171D0763
:1032900069F289912091450330914603232B19F05F
:1032A0000E943617F3CF28E030E040E8E091530366
:1032B000F091540390915B03582F5423D9F050811F
:1032C000952B9083E0915503F09156039081509196
:1032D0005C03952B9083E0915503F0915603508148
:1032E00090915C03909595239083469521503109E8
:1032F000E9F6CCCF508190959523E3CFE091590327
:10330000F0915A03808190915E03892B8083ADCF29
:103310001F93CF93DF93EC01162F8D8D9E8D892BFC
:10332000B1F12DA93EA94FA958AD60E074E284EF38
:1033300090E00E94B8292051310941095109569560
:103340004795379527952093B80066EA111167EAEB
:10335000CE010E94F2178D8D9E8D892B41F129ADF2
:103360003AAD4BAD5CAD60E074E284EF90E00E945A
:10337000B82920513109410951095695479537958A
:1033800027952093B800DF91CF911F9108958B8DE1
:103390009C8D892B21F08EAD9FAD0E945418EFA516
:1033A000F8A990818CA9809589238083CECFEFA541
:1033B000F8A980819CA9892B8083E5CF089590E0AE
:1033C00080E008952091300330913103C9010796C0
:1033D00097FD079623E0959587952A95E1F720912B
:1033E0002E0330912F03829FA001839F500D929F47
:1033F000500D112470E060E08091490390914A03E0
:103400000C94122CFB0101900020E9F73197AF01D9
:10341000461B570BDC01ED91FC910280F381E02DFE
:103420000994CF93DF93BC018AE293E00E94021AD1
:10343000EC016FE771E08AE293E00E94021A8C0FC0
:103440009D1FDF91CF910895CF93DF93FC014481BD
:103450005581608171818AE293E00E94300BEC011A
:103460006FE771E08AE293E00E94021A8C0F9D1FC1
:10347000DF91CF910895EF92FF920F931F93CF9317
:10348000DF93CDB7DEB728970FB6F894DEBF0FBE37
:10349000CDBF7C01FC0184819581892B81F08E0157
:1034A000095F1F4F9E012B5F3F4FAE014D5F5F4F86
:1034B000BE016F5F7F4F808191810E9400062F8146
:1034C000388580E490E0821B930B969587954D811B
:1034D0005E8120E830E0241B350B3695279530932C
:1034E0003703209336039093390380933803C70141
:1034F0000E94241A28960FB6F894DEBF0FBECDBFE7
:10350000DF91CF911F910F91FF90EF900895CF928F
:10351000DF92EF92FF920F931F93CF93DF93CDB77C
:10352000DEB728970FB6F894DEBF0FBECDBF7C0183
:103530006B01FC0184819581892B81F08E01095FEB
:103540001F4F9E012B5F3F4FAE014D5F5F4FBE018E
:103550006F5F7F4F808191810E9400062D813E81A7
:1035600080E890E0821B930B9695879590933703A4
:1035700080933603D0923903C0923803C7010E946A
:10358000241A28960FB6F894DEBF0FBECDBFDF9188
:10359000CF911F910F91FF90EF90DF90CF90089502
:1035A000CF92DF92EF92FF920F931F93CF93DF930F
:1035B000CDB7DEB728970FB6F894DEBF0FBECDBFEC
:1035C0007C016B01FC0184819581892B81F08E0146
:1035D000095F1F4F9E012B5F3F4FAE014D5F5F4F55
:1035E000BE016F5F7F4F808191810E9400062D8117
:1035F0003E8180E890E0821B930B90933703809389
:103600003603D0923903C0923803C7010E94241AAE
:1036100028960FB6F894DEBF0FBECDBFDF91CF91D5
:103620001F910F91FF90EF90DF90CF900895FC01D4
:1036300080819181009711F00C94BE2A0895CF9259
:10364000DF92EF92FF920F931F93CF93DF93CDB74B
:10365000DEB762970FB6F894DEBF0FBECDBF8C0108
:10366000CB01F8011182108213821282158214821A
:103670004AE09E012F5F3F4F6901B9010E9429294D
:10368000F60101900020E9F731977F01EC18FD0861
:10369000F80180819181009729F0228133812E15D4
:1036A0003F0590F4B7016F5F7F4F0E94472BF801F1
:1036B000009799F091838083F382E282248135819F
:1036C000232B11F4FC011082F801F582E482B6018B
:1036D000808191810E94192C0DC080819181009779
:1036E00011F00E94BE2AF801118210821582148204
:1036F0001382128262960FB6F894DEBF0FBECDBF62
:10370000DF91CF911F910F91FF90EF90DF90CF90BD
:1037100008950E94042C85ED8093BC0080911902CD
:1037200090911A02A0911B02B0911C020796A11D54
:10373000B11D23E0B695A795979587952A95D1F762
:103740002091BC0024FD03C01092620208954091B4
:10375000190250911A0260911B0270911C02452BB4
:10376000462B472B69F30097A105B10541F02AE2EA
:103770002A95F1F700C00197A109B109E1CF809125
:1037800018020C94A20B1F920F920FB60F921124E5
:103790002F933F938F939F93AF93BF938091B202E8
:1037A0009091B302A091B402B091B5023091B102F0
:1037B00023E0230F2D3758F50196A11DB11D20934D
:1037C000B1028093B2029093B302A093B402B0937B
:1037D000B5028091B6029091B702A091B802B09163
:1037E000B9020196A11DB11D8093B6029093B70254
:1037F000A093B802B093B902BF91AF919F918F91FE
:103800003F912F910F900FBE0F901F90189526E8B3
:10381000230F0296A11DB11DD2CF1F920F920FB69A
:103820000F9211248F939F938091E1009091E1007A
:10383000937F9093E10083FF0FC01092E90091E025
:103840009093EB001092EC0092E39093ED001092B5
:10385000C70298E09093F00082FF22C093E090931B
:10386000E9009091F200992319F09AE39093E8000F
:103870009091B002992341F09091B00291509093B1
:10388000B002911101C05D9A9091C602992341F056
:103890009091C60291509093C602911101C0289A4E
:1038A00084FF18C08091E2008E7E81608093E200E8
:1038B0008091E1008F7E8093E1008091AF028E7E47
:1038C00080618093AF029F918F910F900FBE0F90F8
:1038D0001F90189580FFF7CF8091E2008E7E806167
:1038E0008093E2008091E1008E7E8093E1008091E0
:1038F000AF028E7E8160E5CF1F920F920FB60F92BE
:103900001124CF92DF92EF92FF920F931F932F9388
:103910003F934F935F936F937F938F939F93AF9357
:10392000BF93EF93FF93CF93DF93CDB7DEB76C9741
:10393000DEBFCDBF1092E9008091E80083FF25C073
:1039400068E0CE0145960E941B0A82EF8093E80052
:103950008D8987FF39C09091E80090FFFCCF982FA8
:10396000907609F034C19E894F89588D2F89F88C43
:10397000911131C0803861F58091AE028093F100E1
:103980001092F1008EEF8093E8006C960FB6F894D9
:10399000DEBF0FBECDBFDF91CF91FF91EF91BF9101
:1039A000AF919F918F917F916F915F914F913F91D7
:1039B0002F911F910F91FF90EF90DF90CF900F907C
:1039C0000FBE0F901F9018959EEF9093E800C7CF01
:1039D0001092F100D5CF913059F48111D3CF4130FD
:1039E000510581F68091AE028D7F8093AE02CACFE1
:1039F000933049F48111C6CF4130510519F68091B9
:103A0000AE028260F2CF953041F48091E80080FFF1
:103A1000FCCF20682093E300B5CF963009F0A9C011
:103A20000B8D1C8D22E01092E9001092AC021092D6
:103A3000AB02F2122EC01092AA021092A9020E94AA
:103A4000EA091F8299E09983FA8291E09E8390EAC5
:103A500098879AEF99872091AB023091AC02275F4B
:103A60003F4F3C832B838D831092E9001092AC0270
:103A70001092AB021093AA020093A90249E050E011
:103A8000BE016F5F7F4F80E00E94C4090E94EA0977
:103A900079CF1093AA020093A9020E94A907DC0122
:103AA00012960D911C910115110509F451C1D8010F
:103AB000ED91FC910480F581E02DBE016B5E7F4F9E
:103AC000C8010995009709F03EC1F80100851185EC
:103AD000EACFF3E0FF120EC08F89882309F440C0BB
:103AE000823061F440E86BE08CEE9AE00E94CD1FDA
:103AF000811148CF81E28093EB0047CF813029F4D8
:103B000040E86BE080EE9AE0F1CF833099F70E94B5
:103B1000A907DC011296ED90FC908E010F5F1F4FFC
:103B20006801E114F10479F0D701ED91FC91068070
:103B3000F781E02DB801C7010995080F111DF701A4
:103B4000E084F184EECFD8011C92F60101900020B0
:103B5000E9F73197BF016C197D0940E0C601C6CF76
:103B60006AEC7AE0FB01449150E080E80E94C409CD
:103B700009CF973009F4BECF983021F481E08093CB
:103B8000F10000CF993009F0FDCE837009F0B2CF7B
:103B9000E9E2F1E081E031E096E32191222371F046
:103BA0008093E9003093EB00DF0111972C91209373
:103BB000EC009093ED008F5F873079F78EE780936C
:103BC000EA001092EA008F898093C702DBCE8B8DCA
:103BD0009C8D1092E9001092AC021092AB0290936F
:103BE000AA028093A902898D811192C08E899D8934
:103BF000913A49F4813209F07DCF47E050E064E129
:103C000071E080E0B3CF913209F074CF833269F470
:103C10008F89988DB0E0A0E08093100190931101FE
:103C2000A0931201B0931301ADCE803269F480915C
:103C3000E80082FFFCCF67E084E191E00E941B0A6C
:103C40008BEF8093E8009ECE823209F09BCE8F8965
:103C500080931B01EEEFFFE7859194918B3F9C4D84
:103C600051F1E0E0F8E08091140190911501A091EC
:103C70001601B0911701803B9440A105B105F1F404
:103C800080911B0180FD1AC0EE3F8AE0F80789F59C
:103C900087E797E791838083809160008093AD02EE
:103CA00088E19BE00FB6F894A895809360000FBE62
:103CB0009093600067CEEEEFFAE0D5CF80819181DE
:103CC0008737974709F05ECEA8958091600088619C
:103CD000809360008091AD0280936000EE3F2AE007
:103CE000F20789F08091FE0A9091FF0A9183808308
:103CF00049CE808191818737980751F29093FF0ACE
:103D00008093FE0AC5CF1092FF0A1092FE0A3ACEA7
:103D10000E94A907DC0112960D911C910115110555
:103D200009F4E8CED801ED91FC910190F081E02DED
:103D3000BE016B5E7F4FC8010995811123CEF8014A
:103D400000851185EBCF181619060CF41BCED2CEC8
:103D5000F1E0FF12BECE6EEC7AE004CF1F920F921C
:103D60000FB60F9211242F933F934F935F936F934E
:103D70007F938F939F93AF93BF93EF93FF93809124
:103D8000B900887F803609F44AC0F0F5883209F41A
:103D9000A7C018F5803109F49BC0B8F4882309F452
:103DA000F9C0883009F494C0FF91EF91BF91AF91B1
:103DB0009F918F917F916F915F914F913F912F9143
:103DC0000F900FBE0F901F901895883109F488C08E
:103DD000803251F78093610214C0803409F49DC091
:103DE00040F48033B9F38833F9F68093610285ECAF
:103DF000B0C0803509F485C0883509F496C0883490
:103E000099F60E948B1BD0CF883909F48CC038F505
:103E1000883729F050F4883611F0803729F683E08E
:103E2000809362021092600257C0883809F47BC008
:103E3000803919F0803809F0B7CF80916002803264
:103E400008F071C0E091600281E08E0F8093600203
:103E50008091BB00F0E0E05CFD4F80833DC0803B83
:103E600039F0E0F4803A09F479C0883A09F09CCF3F
:103E700084E08093620210923F0210923E02E09131
:103E80008B02F0918C02099580913E0281110FC046
:103E900081E080933E0210921E0209C0803C09F42A
:103EA000A6CF883C09F4A3CF883B09F07DCFE091F1
:103EB0003F0281E08E0F80933F02F0E0E25EFD4F13
:103EC00080818093BB0090913F0280913E0229C087
:103ED000809187028093BB0085EC8093BC0064CF07
:103EE0009091860280918502981758F5E09186029C
:103EF00081E08E0F80938602F0E0EB59FD4F8081C8
:103F0000E9CFE091860281E08E0F80938602809156
:103F1000BB00F0E0EB59FD4F8083909186028091C9
:103F200085029817C8F285E8D8CFE091860281E033
:103F30008E0F809386028091BB00F0E0EB59FD4F1D
:103F400080838091640281115CCF81E08093630261
:103F500084EA8093BC001092620226CF85EC8093A5
:103F6000BC001092620280916002803230F4E091D5
:103F70006002F0E0E05CFD4F10826091600270E052
:103F8000E0918902F0918A0280E492E00995109212
:103F900060020ACF1092610234CFEF92FF920F932A
:103FA0001F93CF93DF93F82E192FE62E042F81E075
:103FB000860F880F0E94960983E00E949609CF2DF4
:103FC000D12FEC0EFD2EF11CCE15DF05B9F007FF49
:103FD00013C0FE0184910E949609182F80E00E9470
:103FE0009609812321968111EFCFDF91CF911F9107
:103FF0000F91FF90EF9008958881EDCF81E0F5CF8C
:10400000CF93DF93EEECF2E01382128288EE93E01E
:10401000A0E0B0E084839583A683B78323E331E0F7
:10402000318320832FEF3FEF35872487CEE1D3E024
:104030001B821A828C839D83AE83BF8385E491E0CB
:1040400099838883809120019091210165E070E03F
:104050000E94A42970936D0360936C0380911E01EC
:1040600090911F016EE070E00E94A42970936B0391
:1040700060936A03EAE2F3E01382128240E850E0C0
:104080005583448380E490E09783868351874087FB
:1040900093878287168A158614861786168681E08E
:1040A000858B848B338B228B318B208B878B108E6F
:1040B000128E118E87E591E091838083148E138E8A
:1040C000D68FC58F10A2178E8FEF84A385A386A3EA
:1040D00087A380A780E89AE1A6E0B0E085AB96AB25
:1040E000A7ABB0AF80EA96E8A1E0B0E081AF92AFB5
:1040F000A3AFB4AF80E586AF17AEDF91CF9108953F
:10410000CF93DF93CDB7DEB766970FB6F894DEBFD7
:104110000FBECDBF789484B5826084BD84B58160C4
:1041200084BD85B5826085BD85B5816085BD809182
:104130006E00816080936E001092810080918100FA
:1041400082608093810080918100816080938100F2
:1041500080918000816080938000809191008260D6
:104160008093910080919100816080939100809173
:1041700090008160809390008091C1008460809362
:10418000C1008091C10082608093C1008091C10014
:1041900081608093C1008091C30081608093C300DF
:1041A0008091C00082608093C0008091C2008160D5
:1041B0008093C20080917A00846080937A0080911D
:1041C0007A00826080937A0080917A008160809387
:1041D0007A0080917A00806880937A001092C702FA
:1041E0001092AE021092AF028091D700816080934E
:1041F000D70080EA8093D80089B5806189BD89B5F0
:10420000826089BD09B400FEFDCF61E070E080E00E
:1042100090E00E9464098091D8008F7C8061809337
:10422000D8008091E000807F8093E0008091E100E1
:104230008E7E8093E1008DE08093E200559A209A73
:104240008FEF9FEF9093DB028093DA028091490316
:1042500090914A03892B11F10E94E21920913003B9
:104260003091310380912E0390912F03213231053B
:104270000CF04BC0B9016052710977FF02C06F5F4B
:104280007F4F759567958357910997FD019600E2D9
:1042900010E023E730E04EEC55E04AC020913003B7
:1042A00030913103C901079697FD0796B3E09595C4
:1042B0008795BA95E1F720912E0330912F038C0159
:1042C000029FC001039F900D129F900D11240E9428
:1042D000222A90934A0380934903892B09F0BCCF8B
:1042E0000EE61AE0F8016491662341F08EEC92E04C
:1042F0000E94AD0A0F5F1F4F892BA1F76FE771E096
:104300008EEC92E00E94021AFFCFB901605471094D
:1043100077FF02C06F5F7F4F759567958255910952
:1043200097FD019600E410E022E530E04EEA57E008
:10433000959587950E94651282E080934C03809149
:10434000470390914803892B09F41DC58CE38093A2
:104350004B0310928E0210928D021092CB0210929B
:10436000CA020E94840B8EE29BE090938C028093A1
:104370008B028FE29BE090938A0280938902809166
:10438000520387FD1EC061E00E94600861E08091D9
:1043900052030E94320861E070E080E090E00E94E9
:1043A000640960E0809152030E9432086AE070E084
:1043B00080E090E00E94640961E0809152030E94D5
:1043C00032088091470390914803892B09F49AC5DC
:1043D00020915F033091600340916103509162032B
:1043E00060E074E284EF90E00E94B8292051310926
:1043F0004109510956954795379527952093B8005F
:1044000064E08AEC95E00E943D17609130036150B2
:104410008AE293E00E94F21764E086EC95E00E9445
:104420003D1780914C0360E1813009F064E18AE23C
:1044300093E00E94F21764E082EC95E00E943D1741
:104440008FE88093670380912E0390912F0380382B
:10445000910509F070C5809130039091310380344B
:10446000910509F078C580914C03813009F061C550
:104470008FE98093670312E16AED8AE293E00E947C
:10448000F217612F8AE293E00E94F21761E88AE254
:1044900093E00E94F217609167038AE293E00E9422
:1044A000F21769ED8AE293E00E94F21780914C03C3
:1044B00062E2813009F061EF8AE293E00E94F21734
:1044C00066E08CEB95E00E943D1780914703909148
:1044D0004803892B09F443C5209163033091640399
:1044E000409165035091660360E074E284EF90E0D0
:1044F0000E94B82920513109410951095695479523
:10450000379527952093B8000E94E21982E08093A6
:104510003E0380933F0381E090E090933D038093BE
:104520003C0390933B0380933A031092370310921D
:104530003603109239031092380382E891E00E940A
:10454000111A81E080933E0380933F03109237035A
:104550001092360384E190E09093390380933803FE
:104560008DE891E00E94111A1092370310923603E1
:104570008EE190E0909339038093380389E991E0CC
:104580000E94111A109237031092360382E390E0D2
:10459000909339038093380383EC91E00E94111AC1
:1045A0000E94571861E083E00E94600861E085E0A6
:1045B0000E94600860E082E00E94600860E084E0A1
:1045C0000E94600862E086E00E94600860E087E088
:1045D0000E94600860E088E00E94600862E089E074
:1045E0000E94600860E08AE00E94600860E08BE062
:1045F0000E94600862E08CE00E94600860E08DE04C
:104600000E94600860E08EE00E94600862E08FE037
:104610000E9460081092A1021092A2021092A302BE
:104620001092A4021092970210929802109299028E
:1046300010929A0210929302109294021092950294
:104640001092960210928F02109290021092910294
:10465000109292028FE097E2A0E0B0E080939B027C
:1046600090939C02A0939D02B0939E0270E8872EC7
:10467000912CE0E44E2E512C62E0362E222423941D
:1046800080910E0190910F01181619060CF068C266
:104690008FB7F894C090B202D090B302E090B40209
:1046A000F090B5028FBFC092A502D092A602E09210
:1046B000A702F092A80280911C0190911D014091E7
:1046C000A1025091A2026091A3027091A4029701ED
:1046D0008601041B150B260B370B40911E015091D0
:1046E0001F01841795070CF4AC01052E000C660B16
:1046F000770B401751076207730708F03AC44091DF
:104700009B0250919C0260919D0270919E02411506
:1047100051056105710509F4F3C097018601041B79
:10472000150B260B370BB901A801092E000CAA0B9B
:10473000BB0B481759076A077B0708F4E1C0609173
:1047400020017091210183E00E949C0810929B023D
:1047500010929C0210929D0210929E02C0929702AB
:10476000D0929802E0929902F0929A02809102010E
:104770009091030101979093030180930201F12C22
:10478000E12C0EE110E02EE130E041E150E061E388
:1047900070E08AE293E00E94C40F30923E033092B0
:1047A0003F03609102017091030161507109CE01D4
:1047B00001960E941F1BCE0101960E943B1ACE015A
:1047C00001960E94171B00916A0310916B03809160
:1047D0006C0390916D03B201681B790BEE24E39496
:1047E000F12C20E430E050E040E090E080E00E94D6
:1047F00097108091020190910301181619060CF48C
:104800006AC02FEF3FEF30930F0120930E0180918C
:10481000000190910101909303018093020170E0E7
:1048200060E083E00E949C08F12CE12C0EE110E096
:104830002EE130E041E150E061E370E08AE293E094
:104840000E94C40F609102017091030161507109CF
:10485000CE0101960E941F1BCE0101960E943B1AB9
:10486000CE0101960E94171B00916A0310916B0301
:1048700080916C0390916D03B201681B790B20E469
:1048800030E050E040E090E080E00E94971010920D
:104890009702109298021092990210929A02109226
:1048A0009302109294021092950210929602109226
:1048B0008F021092900210929102109292028FE059
:1048C00097E2A0E0B0E080939B0290939C02A093BB
:1048D0009D02B0939E0260916A0370916B039401F4
:1048E000261B370B6F5F7F4FF12CE12C0FE310E09D
:1048F0004FE350E08AE293E00E942F0F0E94571886
:104900008091970290919802A0919902B0919A0299
:104910000097A105B10509F454C0C090A502D0903C
:10492000A602E090A702F090A802B701A601481BDA
:10493000590B6A0B7B0B80911E0190911F01092E70
:10494000000CAA0BBB0B481759076A077B07C8F175
:1049500070E060E083E00E949C0810929702109241
:1049600098021092990210929A02C0929302D092E9
:104970009402E0929502F0929602F12CE12C00E470
:1049800010E02FE330E050E040E067E070E090E0BE
:1049900080E00E94971060916A0370916B0394010C
:1049A000261B370B6F5F7F4FEE24E394F12C0FE350
:1049B00010E04FE350E08AE293E00E942F0F0E9444
:1049C00057188091930290919402A0919502B09112
:1049D00096020097A105B10509F461C0C090A50237
:1049E000D090A602E090A702F090A802B701A6011D
:1049F000481B590B6A0B7B0B80911C0190911D0188
:104A0000092E000CAA0BBB0B481759076A077B0736
:104A100008F445C0609120017091210185E00E9459
:104A20009C08109293021092940210929502109298
:104A30009602C0928F02D0929002E0929102F09280
:104A4000920280916A0390916B038401081B190BF9
:104A500080916C0390916D03B201681B790BEE2479
:104A6000E394F12C20E430E04FE750E08FE790E052
:104A70000E94971060916A0370916B039401261B4A
:104A8000370B6F5F7F4FF12CE12C0FE310E04FE30A
:104A900050E08AE293E00E942F0F0E945718809105
:104AA0008F0290919002A0919102B0919202009792
:104AB000A105B10509F454C0C090A502D090A6028A
:104AC000E090A702F090A802B701A601481B590B7D
:104AD0006A0B7B0B80911E0190911F01092E000C27
:104AE000AA0BBB0B481759076A077B07C8F170E090
:104AF00060E085E00E949C0810928F021092900264
:104B00001092910210929202C0929B02D0929C024B
:104B1000E0929D02F0929E02F12CE12C01E410E063
:104B20002FE330E04FE750E067E070E08FE790E080
:104B30000E94971060916A0370916B039401261B89
:104B4000370B6F5F7F4FEE24E394F12C0FE310E0FF
:104B50004FE350E08AE293E00E942F0F0E94571823
:104B600080910C0190910D01181619060CF07EC071
:104B70008DE00E9409088FE00E9409088C018EE0F8
:104B80000E940908809104019091050108171907F6
:104B900009F46CC081E090E09093050180930401DA
:104BA000AFEFBFEFB0930D01A0930C010E94E2198B
:104BB00020923E0320923F036091200170912101D9
:104BC000CE0101960E941F1B1092370310923603EC
:104BD0001092390310923803CE0101960E94241AD4
:104BE000CE0101960E94171B60911E0170911F015A
:104BF000CE0101960E941F1B70E060E0CE0101967D
:104C00000E94871ACE0101960E94171B60911C0119
:104C100070911D01CE0101960E941F1B70E060E0A3
:104C2000CE0101960E94D01ACE0101960E94171B58
:104C300030923E0330923F03609102017091030174
:104C400061507109CE0101960E941F1BCE01019691
:104C50000E943B1ACE0101960E94171B0E94571812
:104C600064E670E080E090E00E94640980910C01AD
:104C700090910D0197FF7FC082E00E9409089887FC
:104C80008F8387E00E9409089A8789878AE00E94BB
:104C900009089C878B878DE00E9409089E878D8775
:104CA00086E00E9409088C0189E00E9409083C0105
:104CB0008CE00E9409085C018FE00E9409086C01E9
:104CC00084E00E940908988B8F8788E00E94090879
:104CD0009A8B898B8BE00E9409089C8B8B8B8EE0D2
:104CE0000E9409089E8B8D8B20923E0320923F03E9
:104CF00081E090E090933D0380933C0390933B03CD
:104D000080933A03E0900A01F0900B01EF81F8855F
:104D1000319709F039C1E016F10609F04CC1009154
:104D200008011091090129853A852130310509F0E2
:104D300081C10615170509F094C100910601109173
:104D400007018B859C85019709F0C4C10A151B05D5
:104D500009F0D7C130923E0330923F030091040125
:104D600010910501ED85FE85319709F0F7C1C01658
:104D7000D10609F012C220E030E0232B09F480CCE8
:104D80000E94000079CC61E0809150030E9460088D
:104D900061E0809151030E94600880915003082EC9
:104DA000000C990BFC01EE5DF44FE491F0E0EE0F86
:104DB000FF1FEA5FF44F25913491309358032093FD
:104DC0005703FC01EF5BF44FE491E0935D038091A6
:104DD0005103082E000C990BFC01EE5DF44FE49199
:104DE000F0E0EE0FFF1FEA5FF44FA591B491B0938E
:104DF0005A03A0935903FC01EF5BF44FE491E09355
:104E00005E038C91E82BEC938091450390914603CF
:104E1000892B09F434C01FB7F8948091880281115E
:104E200027C0E3E3FBE08491E2E5FBE09491E82F07
:104E3000F0E0EE0FFF1FE850F54FA591B491EC9113
:104E4000E92321F461E081E10E94320861E081E11F
:104E50000E9460088CB580618CBD8CB580648CBD6F
:104E600061E08FE00E94600861E080E10E946008DC
:104E7000809188028F5F809388021FBF80CA61E0A3
:104E800080914E030E94600861E080914F030E9470
:104E9000600880914E03082E000C990BFC01EE5D1A
:104EA000F44FE491F0E0EE0FFF1FEA5FF44F25911D
:104EB00034913093540320935303FC01EF5BF44F80
:104EC000E491E0935B0380914F03082E000C990B53
:104ED000FC01EE5DF44FE491F0E0EE0FFF1FEA5F9E
:104EE000F44FA591B491B0935603A0935503FC01E0
:104EF000EF5BF44FE491E0935C038C91E095E82341
:104F0000EC933DCA8091450390914603892B31F083
:104F100080916803909169030E945418E0915903AD
:104F2000F0915A03908180915E038095892380835C
:104F300067CA8FEC9ECA8036910569F48091300370
:104F400090913103409739F480914C03813029F4DA
:104F500080E18093670312E08FCA8FEAFACFE09175
:104F60005903F0915A03808190915E03892B8083CD
:104F7000CBCA70E060E083E00E949C0870E060E0D3
:104F800085E00E949C08ECCD6F8578898F8198859B
:104F90000E94EF0580912001909121012091C8028B
:104FA0003091C902820F931F9093210180932001B9
:104FB000E016F10651F010930B0100930A0108EC82
:104FC00010E0109321010093200180912001909125
:104FD000210165E070E00E94A42970936D03609345
:104FE0006C03F12CE12C07E010E02BE230E050E004
:104FF00040E070E060E08AE293E00E94C40F6091BC
:10500000200170912101CE0101960E941F1B109278
:105010003703109236031092390310923803CE01F1
:1050200001960E94241ACE0101960E94171B0E942D
:10503000571875CE69897A8989859A850E94EF0506
:1050400080911E0190911F012091C8023091C902E8
:10505000820F931F90931F0180931E010615170561
:1050600051F070920901609208014AEF50E05093AC
:105070001F0140931E0180911E0190911F016EE05F
:1050800070E00E94A42970936B0360936A03F12C73
:10509000E12C07E010E02BE230E050E040E06BE272
:1050A00070E08AE293E00E94C40F60911E0170914B
:1050B0001F01CE0101960E941F1B70E060E0CE012F
:1050C00001960E94871ACE0101960E94171B0E942A
:1050D000571833CE6B897C898B859C850E94EF05A0
:1050E00080911C0190911D012091C8023091C9024C
:1050F000820F931F90931D0180931C010A151B05BD
:1051000051F0B0920701A0920601AAEFB0E0B0936F
:105110001D01A0931C01F12CE12C07E010E02BE213
:1051200030E050E040E066E570E08AE293E00E9403
:10513000C40F60911C0170911D01CE0101960E9467
:105140001F1B70E060E0CE0101960E94D01ACE01D4
:1051500001960E94171B0E945718FCCD6D897E890D
:105160008D859E850E94EF058091C8029091C902AD
:105170006AE070E00E94A4298091020190910301ED
:10518000680F791F7093030160930201709301010E
:1051900060930001C016D10601F1D0920501C092C2
:1051A0000401C114D104E1F581E090E09093A002E4
:1051B00080939F0240910E0150910F0120919F0218
:1051C0003091A002429FC001439F900D529F900DCD
:1051D000112490930F0180930E01F12CE12C0EE12C
:1051E00010E02EE130E041E150E061E370E08AE25E
:1051F00093E00E94C40F609102017091030161501D
:105200007109CE0101960E941F1BCE0101960E94DA
:105210003B1ACE0101960E94171B0E945718ABCD76
:10522000CA94CD2839F60FEF1FEF1093A002009318
:105230009F02C0CF87E591E090932B0380932A03D0
:105240008091490390914A03009711F00C94BE2A73
:105250000895BB274A3031F4992322F4BDE290959A
:1052600081959F4F0C943529BB27FB015527AA2711
:10527000880F991FAA1FA41710F0A41B83955051E3
:10528000B9F7A05DAA3308F0A95DA193009779F75B
:10529000B111B1931192CB010C944E29DC01FC01A8
:1052A000672F71917723E1F7329704C07C916D935A
:1052B00070836291AE17BF07C8F308952F923F9293
:1052C0004F925F926F927F928F929F92AF92BF9216
:1052D000CF92DF92EF92FF920F931F93CF93DF93C2
:1052E000CDB7DEB7CA1BDB0B0FB6F894DEBF0FBE1F
:1052F000CDBF09942A88398848885F846E847D846C
:105300008C849B84AA84B984C884DF80EE80FD806D
:105310000C811B81AA81B981CE0FD11D0FB6F894E3
:10532000DEBF0FBECDBFED010895A29FB001B39FB8
:10533000C001A39F700D811D1124911DB29F700D9E
:10534000811D1124911D089597FB072E16F40094DA
:1053500007D077FD09D00E940E2A07FC05D03EF445
:10536000909581959F4F0895709561957F4F089511
:10537000A1E21A2EAA1BBB1BFD010DC0AA1FBB1F59
:10538000EE1FFF1FA217B307E407F50720F0A21BCB
:10539000B30BE40BF50B661F771F881F991F1A9438
:1053A00069F760957095809590959B01AC01BD0162
:1053B000CF010895052E97FB1EF400940E94F12959
:1053C00057FD07D00E94B82907FC03D04EF40C9477
:1053D000F12950954095309521953F4F4F4F5F4FA4
:1053E000089590958095709561957F4F8F4F9F4F51
:1053F0000895EE0FFF1F0590F491E02D09940E948F
:105400009529332312F48A1B9B0B0C94092A0E94C2
:105410009529B7FF0895821B930B0895AA1BBB1B08
:1054200051E107C0AA1FBB1FA617B70710F0A61BA4
:10543000B70B881F991F5A95A9F780959095BC01C5
:10544000CD0108950F931F93CF93DF938230910581
:1054500010F482E090E0E0917003F091710330E08D
:1054600020E0B0E0A0E0309799F42115310509F46F
:105470004AC0281B390B24303105D8F58A819B811D
:105480006115710589F1FB0193838283FE0111C0CF
:10549000408151810281138148175907E0F0481774
:1054A000590799F4109761F012960C93129713967E
:1054B0001C933296CF01DF91CF911F910F910895E8
:1054C0000093700310937103F4CF2115310551F04F
:1054D0004217530738F0A901DB019A01BD01DF0132
:1054E000F801C1CFEF01F9CF90937103809370035E
:1054F000CDCFFE01E20FF31F81939193225031092A
:1055000039832883D7CF20916E0330916F03232BEB
:1055100041F4209124013091250130936F032093B1
:105520006E0320912201309123012115310541F4B0
:105530002DB73EB74091260150912701241B350B12
:10554000E0916E03F0916F03E217F307A0F42E1BB6
:105550003F0B2817390778F0AC014E5F5F4F2417D7
:10556000350748F04E0F5F1F50936F0340936E0353
:10557000819391939FCFF0E0E0E09CCFCF93DF93B6
:105580000097E9F0FC01329713821282A091700318
:10559000B0917103ED0130E020E01097A1F420817B
:1055A0003181820F931F20916E0330916F03281772
:1055B000390709F061C0F0936F03E0936E03DF9148
:1055C000CF910895EA01CE17DF07E8F54A815B81A4
:1055D0009E0141155105B1F7E901FB83EA83499129
:1055E0005991C40FD51FEC17FD0761F4808191819B
:1055F0000296840F951FE9019983888382819381A4
:105600009B838A83F0E0E0E012968D919C91139742
:105610000097B9F52D913C911197CD010296820F1B
:10562000931F20916E0330916F032817390739F6C5
:10563000309751F51092710310927003B0936F037D
:10564000A0936E03BCCFD383C28340815181840F6A
:10565000951FC817D90761F44E5F5F4F8881998104
:10566000480F591F518340838A819B819383828392
:105670002115310509F0B0CFF0937103E093700369
:105680009ECFFD01DC01C0CF13821282D7CFB0E0E4
:10569000A0E0EDE4FBE20C9460298C01009751F44A
:1056A000CB010E94222A8C01C801CDB7DEB7E0E110
:1056B0000C947C29FC01E60FF71F9C012250310954
:1056C000E217F30708F49DC0D901CD91DC91119741
:1056D000C617D70798F0C530D10530F3CE0104972F
:1056E0008617970708F3C61BD70B2297C193D19350
:1056F0006D937C93CF010E94BE2AD6CF5B01AC1A7A
:10570000BD0A4C018C0E9D1EA0917003B0917103D7
:10571000512C412CF12CE12C109731F580916E0326
:1057200090916F038815990509F05CC046165706DD
:1057300008F058C08091220190912301009741F414
:105740008DB79EB74091260150912701841B950B80
:10575000E817F90708F055C0F0936F03E0936E0364
:10576000F90171836083A0CF8D919C91119712965E
:105770006C90129713967C901397A815B90559F55C
:105780006C0142E0C40ED11CCA14DB0420F1AC0150
:105790004A195B09DA011296159780F062827382CA
:1057A00051834083D9016D937C93E114F10471F02E
:1057B000D7011396FC93EE93129776CF22968C0F17
:1057C0009D1FF90191838083F301EFCFF093710363
:1057D000E093700369CF4816590608F42C017D0147
:1057E000D3019ACFCB010E94222A7C01009749F075
:1057F000AE01B8010E94092CC8010E94BE2A87018F
:1058000053CF10E000E050CF81E090E0F8940C948A
:10581000202CFB01DC0102C001900D924150504050
:10582000D8F70895DC0101C06D9341505040E0F776
:105830000895FB01DC0101900D920020E1F708952D
:1058400015E0C3ECD5E004C0FE010E94F9292196C1
:0A585000C43CD107C9F7F894FFCF5C
:10585A001A001A0001000100010001000100FFFF07
:10586A00FFFFFFFF00E1000000000000FA00FA005D
:10587A00C80000007203800000C18081000000009F
:10588A00000000AD0A280ACE0AC30A140BD20AF095
:10589A000A00000000C9139C13DF19EE0595138254
:1058AA0013731300000000FE0D300BDF19DE19869A
:1058BA0016EE055E127B1052128B10C612EE05C44C
:1058CA000B8819F6153F16C40FA70F2F0FD00E0D10
:1058DA000A004F70656E5461707065720056657289
:1058EA0073696F6E20302E31006769746875622E95
:1058FA00636F6D2F64656967686E652F62696C6195
:10590A00746572616C2D7374696D756C6174696FFD
:10591A006E2E005075736820434F554E5420746F95
:08592A002073746172742E00F9
:00000001FF
